:020000040800F2
:1000000000500020A12800084123000849230008CF
:100010005123000859230008612300080000000054
:10002000000000000000000000000000692300083C
:100030007523000800000000812300088D230008BC
:10004000E9280008E9280008E9280008E92800084C
:10005000E9280008E9280008E9280008E92800083C
:10006000E928000899230008A7230008B523000801
:10007000E9280008E9280008E9280008E92800081C
:10008000E9280008E9280008C9230008E928000831
:10009000E9280008E9280008E9280008E523000805
:1000A000E9280008E9280008E9280008E9280008EC
:1000B000E9280008E9280008E9280008E9280008DC
:1000C000E9280008E9280008E9280008E9280008CC
:1000D000E9280008E9280008E9280008E9280008BC
:1000E000E9280008E9280008E928000800000000C5
:1000F0000000000000000000000000000000000000
:0C01000000000000000000005FF808F1A3
:1001100010B5054C237833B9044B13B10448AFF341
:1001200000800123237010BDD401002000000000D6
:1001300058A0000808B5034B1BB103490348AFF3AF
:10014000008008BD00000000D801002058A0000871
:10015000034613F8012B002AFBD1181A0138704707
:1001600081F0004102E000BF83F0004330B54FEA68
:1001700041044FEA430594EA050F08BF90EA020FD5
:100180001FBF54EA000C55EA020C7FEA645C7FEA68
:10019000655C00F0E2804FEA5454D4EB5555B8BF8B
:1001A0006D420CDD2C4480EA020281EA030382EAFC
:1001B000000083EA010180EA020281EA0303362D8E
:1001C00088BF30BD11F0004F4FEA01314FF4801C61
:1001D0004CEA113102D0404261EB410113F0004F73
:1001E0004FEA03334CEA133302D0524263EB43032A
:1001F00094EA050F00F0A780A4F10104D5F1200EC8
:100200000DDB02FA0EFC22FA05F2801841F1000122
:1002100003FA0EF2801843FA05F359410EE0A5F1F6
:1002200020050EF1200E012A03FA0EFC28BF4CF027
:10023000020C43FA05F3C01851EBE37101F00045DD
:1002400007D54FF0000EDCF1000C7EEB00006EEBEA
:100250000101B1F5801F1BD3B1F5001F0CD3490874
:100260005FEA30004FEA3C0C04F101044FEA4452CB
:1002700012F5800F80F09A80BCF1004F08BF5FEA52
:10028000500C50F1000041EB045141EA050130BD32
:100290005FEA4C0C404141EB0101013C28BFB1F544
:1002A000801FE9D291F0000F04BF01460020B1FA8F
:1002B00081F308BF2033A3F10B03B3F120020CDA62
:1002C0000C3208DD02F1140CC2F10C0201FA0CF040
:1002D00021FA02F10CE002F11402D8BFC2F1200CA5
:1002E00001FA02F120FA0CFCDCBF41EA0C0190405B
:1002F000E41AA2BF01EB0451294330BD6FEA0404A4
:100300001F3C1CDA0C340EDC04F11404C4F120028E
:1003100020FA04F001FA02F340EA030021FA04F3A0
:1003200045EA030130BDC4F10C04C4F1200220FAF7
:1003300002F001FA04F340EA0300294630BD21FA35
:1003400004F0294630BD94F0000F83F4801306BFFB
:1003500081F480110134013D4EE77FEA645C18BFEF
:100360007FEA655C29D094EA050F08BF90EA020F86
:1003700005D054EA000C04BF1946104630BD91EA7E
:10038000030F1EBF0021002030BD5FEA545C05D181
:100390004000494128BF41F0004130BD14F58004C0
:1003A0003CBF01F5801130BD01F0004545F0FE4134
:1003B00041F470014FF0000030BD7FEA645C1ABF69
:1003C000194610467FEA655C1CBF0B46024650EAA0
:1003D000013406BF52EA033591EA030F41F40021CC
:1003E00030BD00BF90F0000F04BF0021704730B552
:1003F0004FF4806404F132044FF000054FF0000127
:1004000050E700BF90F0000F04BF0021704730B5E7
:100410004FF4806404F1320410F0004548BF4042BC
:100420004FF000013EE700BF42004FEAE2014FEA11
:1004300031014FEA02701FBF12F07F4393F07F4FEC
:1004400081F06051704732F07F4208BF704793F0EF
:100450007F4F04BF41F40021704730B54FF4607402
:1004600001F0004521F000411CE700BF50EA010205
:1004700008BF704730B54FF000050AE050EA0102AE
:1004800008BF704730B511F0004502D5404261EB1E
:1004900041014FF4806404F132045FEA915C3FF45F
:1004A000D8AE4FF003025FEADC0C18BF03325FEAFC
:1004B000DC0C18BF033202EBDC02C2F1200300FAAD
:1004C00003FC20FA02F001FA03FE40EA0E0021FAD2
:1004D00002F11444BDE600BF70B54FF0FF0C4CF4C0
:1004E000E06C1CEA11541DBF1CEA135594EA0C0F72
:1004F00095EA0C0F00F0DEF82C4481EA030621EAAD
:100500004C5123EA4C5350EA013518BF52EA0335E7
:1005100041F4801143F4801338D0A0FB02CE4FF099
:100520000005E1FB02E506F00042E0FB03E54FF0C9
:100530000006E1FB03569CF0000F18BF4EF0010EC1
:10054000A4F1FF04B6F5007F64F5407404D25FEABD
:100550004E0E6D4146EB060642EAC62141EA555170
:100560004FEAC52040EA5E504FEACE2EB4F1FD0CB2
:1005700088BFBCF5E06F1ED8BEF1004F08BF5FEA30
:10058000500E50F1000041EB045170BD06F00046E2
:1005900046EA010140EA020081EA0301B4EB5C048F
:1005A000C2BFD4EB0C0541EA045170BD41F4801187
:1005B0004FF0000E013C00F3AB8014F1360FDEBFAC
:1005C000002001F0004170BDC4F10004203C35DA88
:1005D0000C341BDC04F11404C4F1200500FA05F30B
:1005E00020FA04F001FA05F240EA020001F00042AC
:1005F00021F0004110EBD37021FA04F642EB060122
:100600005EEA430E08BF20EAD37070BDC4F10C044B
:10061000C4F1200500FA04F320FA05F001FA04F20F
:1006200040EA020001F0004110EBD37041F10001FB
:100630005EEA430E08BF20EAD37070BDC4F1200506
:1006400000FA05F24EEA020E20FA04F301FA05F26E
:1006500043EA020321FA04F001F0004121FA04F216
:1006600020EA020000EBD3705EEA430E08BF20EAE6
:10067000D37070BD94F0000F0FD101F00046400020
:1006800041EB010111F4801F08BF013CF7D041EAA2
:10069000060195F0000F18BF704703F000465200A6
:1006A00043EB030313F4801F08BF013DF7D043EA77
:1006B0000603704794EA0C0F0CEA135518BF95EA2D
:1006C0000C0F0CD050EA410618BF52EA4306D1D1B4
:1006D00081EA030101F000414FF0000070BD50EAD3
:1006E000410606BF1046194652EA430619D094EA5D
:1006F0000C0F02D150EA013613D195EA0C0F05D147
:1007000052EA03361CBF104619460AD181EA03019A
:1007100001F0004141F0FE4141F470014FF0000052
:1007200070BD41F0FE4141F4780170BD70B54FF0ED
:10073000FF0C4CF4E06C1CEA11541DBF1CEA13556D
:1007400094EA0C0F95EA0C0F00F0A7F8A4EB05044F
:1007500081EA030E52EA03354FEA013100F0888046
:100760004FEA03334FF0805545EA131343EA12630F
:100770004FEA022245EA111545EA10654FEA0026C4
:100780000EF000419D4208BF964244F1FD0404F57D
:10079000407402D25B084FEA3202B61A65EB0305D9
:1007A0005B084FEA32024FF480104FF4002CB6EB96
:1007B000020E75EB030E22BFB61A754640EA0C0016
:1007C0005B084FEA3202B6EB020E75EB030E22BF56
:1007D000B61A754640EA5C005B084FEA3202B6EB97
:1007E000020E75EB030E22BFB61A754640EA9C0056
:1007F0005B084FEA3202B6EB020E75EB030E22BF26
:10080000B61A754640EADC0055EA060E18D04FEAE3
:10081000051545EA16754FEA06164FEAC30343EA83
:1008200052734FEAC2025FEA1C1CC0D111F4801F50
:100830000BD141EA00014FF000004FF0004CB6E749
:1008400011F4801F04BF01430020B4F1FD0C88BFE8
:10085000BCF5E06F3FF6AFAEB5EB030C04BFB6EBF3
:10086000020C5FEA500C50F1000041EB045170BDE6
:100870000EF0004E4EEA113114EB5C04C2BFD4EB13
:100880000C0541EA045170BD41F480114FF0000E97
:10089000013C90E645EA060E8DE60CEA135594EA13
:1008A0000C0F08BF95EA0C0F3FF43BAF94EA0C0F16
:1008B0000AD150EA01347FF434AF95EA0C0F7FF48B
:1008C00025AF104619462CE795EA0C0F06D152EADF
:1008D00003353FF4FDAE1046194622E750EA4106C3
:1008E00018BF52EA43067FF4C5AE50EA41047FF4D4
:1008F0000DAF52EA43057FF4EBAE12E74FF0FF3C39
:1009000006E000BF4FF0010C02E000BF4FF0010C09
:100910004DF804CD4FEA410C7FEA6C5C4FEA430C82
:1009200018BF7FEA6C5C1BD001B050EA410C0CBFD1
:1009300052EA430C91EA030F02BF90EA020F002033
:10094000704710F1000F91EA030F58BF994208BF9A
:1009500090422CBFD8176FEAE37040F00100704757
:100960004FEA410C7FEA6C5C02D150EA013C07D1AE
:100970004FEA430C7FEA6C5CD6D152EA033CD3D0F9
:100980005DF8040B704700BF8446104662468C46F3
:100990001946634600E000BF01B5FFF7B7FF002826
:1009A00048BF10F1000F01BD4DF808EDFFF7F4FF4F
:1009B0000CBF012000205DF808FB00BF4DF808EDDA
:1009C000FFF7EAFF34BF012000205DF808FB00BFFD
:1009D0004DF808EDFFF7E0FF94BF012000205DF81F
:1009E00008FB00BF4DF808EDFFF7CEFF94BF0120D4
:1009F00000205DF808FB00BF4DF808EDFFF7C4FFCD
:100A000034BF012000205DF808FB00BF4FEA410C15
:100A10007FEA6C5C02D150EA013C0AD14FEA430CF8
:100A20007FEA6C5C02D152EA033C02D14FF0000035
:100A300070474FF0010070474FEA410212F5001273
:100A400015D211D56FF47873B3EB625212D94FEA15
:100A5000C12343F0004343EA505311F0004F23FAFF
:100A600002F018BF404270474FF00000704750EA54
:100A7000013005D111F0004008BF6FF00040704711
:100A80004FF00000704700BF4FEA4102B2F1E0436F
:100A900024BFB3F5001CDCF1FE5C0DD901F0004C65
:100AA0004FEAC0024CEA5070B2F1004F40EB8300B5
:100AB00008BF20F00100704711F0804F21D113F1E1
:100AC0003872BCBF01F00040704741F480114FEA1A
:100AD0005252C2F11802C2F1200C10FA0CF320FAA3
:100AE00002F018BF40F001004FEAC1234FEAD323C0
:100AF00003FA0CFC40EA0C0023FA02F34FEA43032A
:100B0000CCE77FEA625307D150EA01331EBF4FF0B2
:100B1000FE4040F44000704701F0004040F0FE40CD
:100B200040F40000704700BF80F0004002E000BFCA
:100B300081F0004142001FBF5FEA410392EA030FC8
:100B40007FEA226C7FEA236C6AD04FEA1262D2EB12
:100B50001363C1BFD218414048404140B8BF5B4217
:100B6000192B88BF704710F0004F40F4000020F0B0
:100B70007F4018BF404211F0004F41F4000121F0C6
:100B80007F4118BF494292EA030F3FD0A2F1010210
:100B900041FA03FC10EB0C00C3F1200301FA03F14E
:100BA00000F0004302D5494260EB4000B0F5000F71
:100BB00013D3B0F1807F06D340084FEA310102F130
:100BC0000102FE2A51D2B1F1004F40EBC25008BFE2
:100BD00020F0010040EA03007047490040EB0000AC
:100BE000013A28BFB0F5000FEDD2B0FA80FCACF1AD
:100BF000080CB2EB0C0200FA0CF0AABF00EBC250DA
:100C000052421843BCBFD0401843704792F0000FC7
:100C100081F4000106BF80F400000132013BB5E71A
:100C20004FEA41037FEA226C18BF7FEA236C21D090
:100C300092EA030F04D092F0000F08BF08467047F5
:100C400090EA010F1CBF0020704712F07F4F04D1C3
:100C5000400028BF40F00040704712F100723CBFD6
:100C600000F50000704700F0004343F0FE4040F400
:100C7000000070477FEA226216BF08467FEA2363BE
:100C80000146420206BF5FEA412390EA010F40F4A9
:100C9000800070474FF0000304E000BF10F00043F5
:100CA00048BF40425FEA000C08BF704743F09643DC
:100CB00001464FF000001CE050EA010208BF7047F7
:100CC0004FF000030AE000BF50EA010208BF70477E
:100CD00011F0004302D5404261EB41015FEA010C93
:100CE00002BF84460146002043F0B64308BFA3F18B
:100CF0008053A3F50003BCFA8CF2083AA3EBC2536D
:100D000010DB01FA02FC634400FA02FCC2F120028B
:100D1000BCF1004F20FA02F243EB020008BF20F0C2
:100D20000100704702F1200201FA02FCC2F1200228
:100D300050EA4C0021FA02F243EB020008BF20EA1D
:100D4000DC7070474FF0FF0C1CEAD0521EBF1CEA4B
:100D5000D15392EA0C0F93EA0C0F6FD01A4480EA39
:100D6000010C400218BF5FEA41211ED04FF0006322
:100D700043EA501043EA5111A0FB01310CF000404E
:100D8000B1F5000F3EBF490041EAD3715B0040EA74
:100D9000010062F17F02FD2A1DD8B3F1004F40EB44
:100DA000C25008BF20F00100704790F0000F0CF017
:100DB000004C08BF49024CEA502040EA51207F3ADB
:100DC000C2BFD2F1FF0340EAC250704740F40000B6
:100DD0004FF00003013A5DDC12F1190FDCBF00F0A7
:100DE00000407047C2F10002410021FA02F1C2F155
:100DF000200200FA02FC5FEA310040F1000053EAF1
:100E00004C0308BF20EADC70704792F0000F00F03E
:100E1000004C02BF400010F4000F013AF9D040EA44
:100E20000C0093F0000F01F0004C02BF490011F4D8
:100E3000000F013BF9D041EA0C018FE70CEAD153D6
:100E400092EA0C0F18BF93EA0C0F0AD030F0004C56
:100E500018BF31F0004CD8D180EA010000F000400A
:100E6000704790F0000F17BF90F0004F084691F0C8
:100E7000000F91F0004F14D092EA0C0F01D1420202
:100E80000FD193EA0C0F03D14B0218BF084608D1CB
:100E900080EA010000F0004040F0FE4040F4000015
:100EA000704740F0FE4040F4400070474FF0FF0CA8
:100EB0001CEAD0521EBF1CEAD15392EA0C0F93EAEF
:100EC0000C0F69D0A2EB030280EA010C49024FEA41
:100ED000402037D04FF0805343EA111143EA1013FA
:100EE0000CF000408B4238BF5B0042F17D024FF4B2
:100EF000000C8B4224BF5B1A40EA0C00B3EB510F8D
:100F000024BFA3EB510340EA5C00B3EB910F24BF75
:100F1000A3EB910340EA9C00B3EBD10F24BFA3EBFA
:100F2000D10340EADC001B0118BF5FEA1C1CE0D1C2
:100F3000FD2A3FF650AF8B4240EBC25008BF20F075
:100F4000010070470CF0004C4CEA50207F32C2BFC9
:100F5000D2F1FF0340EAC250704740F400004FF066
:100F60000003013A37E792F0000F00F0004C02BF97
:100F7000400010F4000F013AF9D040EA0C0093F061
:100F8000000F01F0004C02BF490011F4000F013BBB
:100F9000F9D041EA0C0195E70CEAD15392EA0C0F23
:100FA00008D142027FF47DAF93EA0C0F7FF470AF5B
:100FB000084676E793EA0C0F04D14B023FF44CAF9E
:100FC00008466EE730F0004C18BF31F0004CCAD133
:100FD00030F000427FF45CAF31F000437FF43CAF6F
:100FE0005FE700BF80B483B000AF78607B68214AC0
:100FF0001A607B684FF07E525A607B684FF00002A7
:101000009A607B684FF00002DA607B684FF0000264
:101010001A617B68184A1A627B684FF000025A61B5
:101020007B684FF000029A617B684FF00002DA6142
:101030007B68002283F824207B684FF000025A630B
:101040007B684FF000029A637B684FF00002DA631E
:101050007B684FF000029A627B684FF00002DA6210
:101060007B684FF000021A6300BF0C37BD4680BC9E
:10107000704700BF9A99993E0AD7233C80B584B047
:1010800000AF7860BB23FB7300224FF480513248DD
:1010900002F091FE07F10F014FF0FF3301222F48BC
:1010A00003F004FC07F108014FF0FF3306222B4840
:1010B00003F040FD01224FF48051274802F07BFEEF
:1010C000012001F075FC3A7A7B68DA717A7A7B68E4
:1010D0009A71BA7A7B685A72FA7A7B681A723A7B8A
:1010E0007B68DA727A7B7B689A72C323FB73002277
:1010F0004FF48051184802F05EFE07F10F014FF0E7
:10110000FF330122154803F0D1FB07F108014FF02E
:10111000FF330622114803F00DFD01224FF48051E8
:101120000D4802F048FE012001F042FC3A7A7B684B
:101130005A707A7A7B681A70BA7A7B68DA70FA7AAF
:101140007B689A703A7B7B685A717A7B7B681A71EC
:1011500000BF1037BD4680BD000C0140F8020020E2
:1011600080B584B000AF0346FB710023FB73FB79AD
:1011700063F07F03DBB2FB7100224FF480510E4815
:1011800002F019FEF91D4FF0FF3301220B4803F066
:101190008DFB07F10F014FF0FF330122074803F0E9
:1011A000C9FC01224FF48051034802F004FEFB7B8E
:1011B00018461037BD4680BD000C0140F8020020E3
:1011C00080B582B000AF03460A46FB711346BB717F
:1011D000FB79FB7100224FF480510F4802F0EBFDC8
:1011E000F91D4FF0FF3301220C4803F05FFBB91DDE
:1011F0004FF0FF330122094803F058FB01224FF45E
:101200008051054802F0D7FD012001F0D1FB00BF5D
:101210000837BD4680BD00BF000C0140F802002029
:101220002DE9F04F99B000AFF86110461A460B4611
:10123000FB760346BB7613467B766B461E46F97EED
:101240000B46013B3B64CBB200221C4615464FF0D7
:1012500000024FF00003AB0143EA9463A201CBB25A
:1012600000223B617A614FF000024FF00003D7E9A2
:10127000044528468301204643EA906320468201C4
:101280000B46DB000733DB08DB00ADEB030D6B46E1
:101290000733DB08DB00FB63F97E0B46013BBB63D6
:1012A000CBB20022BB60FA604FF000024FF00003A7
:1012B000D7E9024528468301204643EA9063204649
:1012C0008201CBB200223B607A604FF000024FF007
:1012D0000003D7E9004528468301204643EA90638E
:1012E000204682010B46DB000733DB08DB00ADEB59
:1012F000030D6B460733DB08DB007B63F97E0B468F
:10130000013B3B63CBB200229A4693464FF000026A
:101310004FF000034FEA8B1343EA9A634FEA8A12B5
:10132000CBB20022984691464FF000024FF00003E6
:101330004FEA891343EA98634FEA88120B46DB00B1
:101340000733DB08DB00ADEB030D6B460733DB082F
:10135000DB00FB624FF000024FF00003C7E91223ED
:101360007520FFF7FDFE034687F82B3097F82B30EA
:10137000702B01D00123BCE180216B20FFF720FFFF
:1013800007216820FFF71CFF18211C20FFF718FF1A
:1013900010211B20FFF714FF002387F8473038E0A7
:1013A000F869FFF76BFEFB69B3F9063097F8474021
:1013B0001846FFF727F802460B46F86BE100014498
:1013C000C1E90023FB69B3F9083097F84740184694
:1013D000FFF718F802460B46786BE1000144C1E9BB
:1013E0000023FB69B3F90A3097F847401846FFF726
:1013F00009F802460B46F86AE1000144C1E90023FE
:101400004FF4FA7001F0D4FA97F84730013387F8B7
:10141000473097F84720FB7E9A42C1D3002387F8D4
:10142000463031E097F84630FA6BDB001344D3E9DD
:101430000023D7E91601FEF799FE02460B46C7E9DD
:10144000162397F846307A6BDB001344D3E9002368
:10145000D7E91401FEF78AFE02460B46C7E91423BA
:1014600097F84630FA6ADB001344D3E90023D7E942
:101470001201FEF77BFE02460B46C7E9122397F8DE
:101480004630013387F8463097F84620FB7E9A4273
:10149000C8D3D7E91601FFF7CFFA03461BB21A46A5
:1014A000FB7E92FBF3F31AB2FB69DA80D7E91401F1
:1014B000FFF7C2FA03461BB21A46FB7E92FBF3F318
:1014C0001AB2FB691A81D7E91201FFF7B5FA034690
:1014D0001BB21A46FB7E92FBF3F31AB2FB695A81E8
:1014E000002387F82A30002387F829300023FB8463
:1014F0000023BB847720FFF733FE034687F82A30AA
:101500007820FFF72DFE034687F8293097F82A3018
:101510001A0297F8293013435B10FB84FB8CBB84C1
:10152000BA8CFB69B3F90630D90F0B445B101BB2C0
:101530009BB2D31A9BB2BB84B7F92430DB111BB228
:1015400087F82A30BB8CDBB25B0087F8293097F82C
:101550002A3019467720FFF733FE97F829301946CD
:101560007820FFF72DFE7A20FFF7FAFD034687F873
:101570002A307B20FFF7F4FD034687F8293097F8DF
:101580002A301A0297F8293013435B10FB84FB8C36
:10159000BB84BA8CFB69B3F90830D90F0B445B10DC
:1015A0001BB29BB2D31A9BB2BB84B7F92430DB11B8
:1015B0001BB287F82A30BB8CDBB25B0087F829307E
:1015C00097F82A3019467A20FFF7FAFD97F8293064
:1015D00019467B20FFF7F4FD7D20FFF7C1FD034690
:1015E00087F82A301E20FFF7BBFD034687F8293015
:1015F00097F82A301A0297F8293013435B10FB84BE
:10160000FB69B3F90A309BB2A3F500639BB21AB22F
:10161000FB695A81FB8CBB84BA8CFB69B3F90A3035
:10162000D90F0B445B101BB29BB2D31A9BB2BB8485
:10163000B7F92430DB111BB287F82A30BB8CDBB240
:101640005B0087F8293097F82A3019467D20FFF78C
:10165000B7FD97F8293019461E20FFF7B1FDFB6949
:10166000B3F900309BB25B429BB21AB2FB691A809D
:10167000FB695B7819461320FFF7A2FDFB691B7815
:1016800019461420FFF79CFDFB69B3F902309BB2A9
:101690005B429BB21AB2FB695A80FB69DB78194640
:1016A0001520FFF78DFDFB699B7819461620FFF783
:1016B00087FDFB69B3F904309BB25B429BB21AB25F
:1016C000FB699A80FB695B7919461720FFF778FD63
:1016D000FB691B7919461820FFF772FD7B7E1946BE
:1016E0001C20FFF76DFDBB7E19461B20FFF768FD30
:1016F0000023B54618466437BD46BDE8F08F0000AC
:1017000080B584B000AF3B1D00221A605A609A6019
:101710002E4B2F4A1A602D4B4FF480729A602B4B40
:1017200000221A73294B00221A75284B4FF46022AD
:10173000DA61264B00225A60244B04221A612348A6
:1017400001F05AF90346002B01D000F03EFD0123C1
:101750007B600123BB600223FB603B1D19461B48D5
:1017600001F090FC0346002B01D000F02EFD022377
:101770007B600223BB603B1D1946144801F082FCCC
:101780000346002B01D000F020FD03237B600323E0
:10179000BB603B1D19460D4801F074FC0346002B4D
:1017A00001D000F012FD04237B600423BB603B1DCD
:1017B0001946064801F066FC0346002B01D000F0F4
:1017C00004FD00BF1037BD4680BD00BFF001002002
:1017D0000024014080B584B000AF3B1D00221A6098
:1017E0005A609A60184B194A1A60174B00229A6087
:1017F000154B00221A73144B00221A75124B4FF42A
:101800006022DA61104B00225A600F4B01221A61EC
:101810000D4801F0F1F80346002B01D000F0D5FC93
:1018200000237B600123BB600223FB603B1D194644
:10183000054801F027FC0346002B01D000F0C5FC51
:1018400000BF1037BD4680BD2002002000280140A7
:1018500080B58AB000AF786007F1180300221A60E3
:101860005A609A60DA607B681B68444A934252D19E
:10187000434B9B69424A43F400739361404B9B691D
:1018800003F400737B617B693D4B9B693C4A43F0E9
:10189000040393613A4B9B6903F004033B613B698A
:1018A0001E23BB610323FB6107F11803194635486A
:1018B00002F0E6F8344B354A1A60334B00225A6086
:1018C000314B00229A60304B8022DA602E4B4FF46D
:1018D00000721A612C4B4FF400625A612A4B20228D
:1018E0009A61294B0022DA61274801F0DBFE0346AA
:1018F000002B01D000F069FC7B68234A1A62224A5F
:101900007B68536200220021122001F094FE122015
:1019100001F0ADFE2EE07B681B681D4A934229D181
:10192000174B9B69164A43F480639361144B9B6980
:1019300003F48063FB60FB68114B9B69104A43F022
:10194000040393610E4B9B6903F00403BB60BB6807
:101950000123BB610323FB6107F118031946094802
:1019600002F08EF800220021122001F064FE122005
:1019700001F07DFE00BF2837BD4680BD0024014038
:101980000010024000080140500200200800024000
:101990000028014080B582B000AF0C4B5B690B4A58
:1019A00043F001035361094B5B6903F001037B6062
:1019B0007B68002200210B2001F03DFE0B2001F08E
:1019C00056FE00BF0837BD4680BD00BF0010024074
:1019D00080B588B000AF07F1100300221A605A608A
:1019E0009A60DA60574B9B69564A43F01003936143
:1019F000544B9B6903F01003FB60FB68514B9B69E0
:101A0000504A43F0200393614E4B9B6903F020033F
:101A1000BB60BB684B4B9B694A4A43F0040393612C
:101A2000484B9B6903F004037B607B68454B9B69D3
:101A3000444A43F008039361424B9B6903F0080357
:101A40003B603B6800224FF460413F4802F0B3F92D
:101A5000012248F2E0013D4802F0ADF9012241F2D5
:101A600003013B4802F0A7F900224FF40171384806
:101A700002F0A1F900224FF48051344802F09BF9A2
:101A80004FF460433B6101237B610023BB61022370
:101A9000FB6107F1100319462B4801F0F1FF49F2F1
:101AA000E0033B6101237B610023BB610223FB61F7
:101AB00007F110031946254801F0E2FF41F2072320
:101AC0003B6101237B610023BB610223FB6107F1C2
:101AD000100319461E4801F0D3FF78233B611D4BCC
:101AE0007B610023BB6107F110031946184801F020
:101AF000C7FF4FF4C0733B6100237B610023BB61D0
:101B000007F110031946124801F0BAFF0022002124
:101B1000092001F090FD092001F0A9FD002200211B
:101B20000A2001F088FD0A2001F0A1FD0022002119
:101B3000172001F080FD172001F099FD00BF20372C
:101B4000BD4680BD00100240001001400008014069
:101B5000000C01400000311080B582B000AF786009
:101B600039603868FEF7F4FA03469AB24FF0FF3353
:101B70003968786804F02DFA00BF0837BD4680BD8B
:101B800080B500AF174B1B681846FEF74DFC0246A8
:101B90000B461549154805F00DF914491448FFF78F
:101BA000DBFF144B1B681846FEF73EFC02460B4653
:101BB00011490E4805F0FEF80C490D48FFF7CCFF1F
:101BC0000E4B1B681846FEF72FFC02460B460C49CD
:101BD000064805F0EFF805490548FFF7BDFF00BFCF
:101BE00080BD00BFF402002070A00008B0020020F9
:101BF0009C030020E802002080A00008EC020020E6
:101C00008CA00008000000002DE9B04388B000AFB0
:101C10009F4B1B68FB619F4B1B68BB619C4B002269
:101C20001A609C4B00221A60F869FEF7EBFB8EA34A
:101C3000D3E90023FEF750FC02460B461046194636
:101C4000FEF722FF03467B61B869FEF7DBFB86A344
:101C5000D3E90023FEF740FC02460B461046194626
:101C6000FEF712FF03463B6139697869FEF762FFB0
:101C700003464FF080411846FFF718F90346FB6012
:101C800079693869FEF754FF03461846FEF7CCFB26
:101C900077A3D3E90023FEF749FD02460B46104621
:101CA0001946FEF7F1FE0346BB607B4B1B681846E6
:101CB000FEF7BAFB04460D46B868FEF7B5FB4FF0D9
:101CC00000024FF08043FEF731FD02460B462046EE
:101CD0002946FEF74BFA02460B4610461946FEF718
:101CE000D3FE03467B606D4B1B681846FEF79CFBDA
:101CF00004460D46F868FEF797FB804689467868EB
:101D0000FEF792FB02460B461046194607F090F983
:101D100002460B4640464946FEF7DEFB02460B46AE
:101D200020462946FEF722FA02460B46104619467F
:101D3000FEF7AAFE0346594A1360594B1B68184622
:101D4000FEF772FB04460D46F868FEF76DFB804611
:101D500089467868FEF768FB02460B46104619462E
:101D600007F0ACF902460B4640464946FEF7B4FB85
:101D700002460B4620462946FEF7F8F902460B4676
:101D800010461946FEF780FE0346454A1360424B53
:101D90001B68B9681846FEF7CDFE03461A463E4B4F
:101DA0001A603D4B1B681846FEF73EFB32A3D3E991
:101DB0000023FEF721FE0346002B12D0364B1B6892
:101DC0001846FEF731FB2EA3D3E90023FEF7CCF92A
:101DD00002460B4610461946FEF756FE03462E4AAB
:101DE00013602D4B1B681846FEF71EFB26A3D3E994
:101DF0000023FEF7E3FD0346002B12D0264B1B68A1
:101E00001846FEF711FB1EA3D3E90023FEF7AEF937
:101E100002460B4610461946FEF736FE03461E4A9A
:101E200013601D4B1B681846FEF7FEFA4FF00002C8
:101E30001C4BFEF751FB02460B46104619460EA3FB
:101E4000D3E90023FEF772FC02460B461046194602
:101E5000FEF71AFE0346144A136000BF2037BD4642
:101E6000BDE8B083AFF3008031721198D94FDD3FE8
:101E70003333333333735A40182D4454FB21094014
:101E8000182D4454FB211940182D4454FB2109C03E
:101E9000E0020020E4020020F0020020E80200201E
:101EA000EC02002000806640F402002080B483B081
:101EB00000AF78607B681B680D4A934213D10D4BCD
:101EC0001B689AB20C4B1A800A4B5B689AB20A4B99
:101ED0005A80084B9B689AB2074B9A80054BDB6887
:101EE0009AB2054BDA8000BF0C37BD4680BC704704
:101EF0000024014094020020A802002090B585B083
:101F000000AF0346FB80FB88402B02D0FB88202BD0
:101F100027D140212B4801F037FF0346002B01D089
:101F2000022400E000242021264801F02DFF034672
:101F3000002B14BF01230023DBB25BB223435BB24F
:101F4000FB73214B1B789A00FB7B13431F4AD3562C
:101F50001A461F4B1B6813441D4A13601A4AFB7B29
:101F60001370FB88082B02D0FB88102B26D1082188
:101F7000144801F009FF0346002B01D0022400E0C1
:101F8000002410210F4801F0FFFE0346002B14BF70
:101F900001230023DBB25BB223435BB2BB730D4B67
:101FA0001B680D4A12789100BA7B0A4307498A568A
:101FB0009B1A084A1360084ABB7B137000BF143792
:101FC000BD4690BD000C0140DC020020CCA0000802
:101FD000E0020020E4020020DD02002080B594B081
:101FE00000AF00F083FC00F095F8FFF7F1FCFFF77D
:101FF000D1FCFFF785FB00F0EFF800F0DBFB00F011
:10200000C3FAFFF7E7FB042239493A4800F082FEA1
:10201000384800F0C9FD0021374803F0FFF90421DA
:10202000354803F0FBF90821334803F0F7F90C2198
:10203000314803F0F3F9304B1B6800225A632E4BF2
:102040001B6800229A632C4B1B680022DA632A4B20
:102050001B6800221A643B461846FEF7C3FF07F1CF
:102060004000082310220A21FFF7DAF8034687F818
:102070004F3097F84F30012B09D120492048FFF706
:102080006BFD4FF4FA7000F093FC00BFF5E71D49BB
:102090001B48FFF761FD4FF4FA7000F089FCFFF771
:1020A0006FFD4FF4FA6000F083FC00F077FC03460C
:1020B000154A1360144B1A68144B1B68D31A40F26C
:1020C000EA32934205D9104B1B68104A1360FFF7A0
:1020D00057FD0D4B1A680E4B1B68D31A092BE4D918
:1020E000094B1B680A4A1360FFF78EFDDDE700BF4E
:1020F00094020020F0010020540300209CA000085E
:102100009C030020B4A00008D0020020D4020020CC
:10211000D802002080B594B000AF07F12803282230
:102120000021184604F0ABFE07F1140300221A60E8
:102130005A609A60DA601A613B1D00221A605A6088
:102140009A60DA600123BB624FF48033FB620023A4
:102150003B630123BB6302237B644FF48033BB6486
:102160004FF4E013FB6407F12803184601F054FE16
:102170000346002B01D000F028F80F237B610223D7
:10218000BB610023FB614FF480633B6200237B62F1
:1021900007F114030221184602F0C0F80346002B91
:1021A00001D000F012F802237B604FF40043FB6083
:1021B0003B1D184602F040FA0346002B01D000F008
:1021C00004F800BF5037BD4680BD80B400AF72B682
:1021D00000BF00BFFDE7000080B500AF174B184AF5
:1021E0001A60164B4FF482725A60144B00229A60A8
:1021F000124B0022DA60114B00221A610F4B0022B1
:102200005A610E4B4FF400729A610C4B1022DA6146
:102210000A4B00221A62094B00225A62074B002225
:102220009A62064B0A22DA62044802F0BBFA0346BD
:10223000002B01D0FFF7C9FF00BF80BDF8020020CE
:102240000038004080B588B000AF786007F1100317
:1022500000221A605A609A60DA607B681B681C4A28
:10226000934231D11B4BDB691A4A43F48043D3615B
:10227000184BDB6903F48043FB60FB68154B9B69DB
:10228000144A43F008039361124B9B6903F008035F
:10229000BB60BB684FF420433B6102237B61032397
:1022A000FB6107F1100319460B4801F0E9FB4FF4FD
:1022B00080433B6100237B610023BB6107F1100376
:1022C0001946054801F0DCFB00BF2037BD4680BD44
:1022D0000038004000100240000C014080B485B07E
:1022E00000AF154B9B69144A43F001039361124BF5
:1022F0009B6903F00103BB60BB680F4BDB690E4AAF
:1023000043F08053D3610C4BDB6903F080537B6057
:102310007B680A4B5B68FB60FB6823F0E063FB6053
:10232000FB6843F00073FB60044AFB68536000BF26
:102330001437BD4680BC70470010024000000140C9
:1023400080B400AF00BFFDE780B400AF00BFFDE781
:1023500080B400AF00BFFDE780B400AF00BFFDE771
:1023600080B400AF00BFFDE780B400AF00BFBD4642
:1023700080BC704780B400AF00BFBD4680BC7047D2
:1023800080B400AF00BFBD4680BC704780B500AFD1
:1023900000F0F2FA00BF80BD80B500AF082001F068
:1023A00023FD00BF80BD80B500AF102001F01CFDF3
:1023B00000BF80BD80B500AF024801F02DFA00BF1C
:1023C00080BD00BF5002002080B500AF034800F080
:1023D0007FFD034800F07CFD00BF80BDF0010020C0
:1023E0002002002080B500AF202001F0FDFC40203D
:1023F00001F0FAFC00BF80BD80B400AF0123184695
:10240000BD4680BC704780B582B000AF786039604F
:1024100004F088FD034616221A604FF0FF33184679
:102420000837BD4680BD80B582B000AF78604FF000
:10243000FF317868FFF7E7FF00BFFDE780B586B0A2
:1024400000AFF860B9607A6000237B610AE0AFF307
:1024500000800146BB685A1CBA60CAB21A707B6918
:1024600001337B617A697B689A42F0DB7B681846AE
:102470001837BD4680BD80B586B000AFF860B96042
:102480007A6000237B6109E0BB685A1CBA601B7844
:102490001846AFF300807B6901337B617A697B6802
:1024A0009A42F1DB7B6818461837BD4680BD80B480
:1024B00083B000AF78604FF0FF3318460C37BD464D
:1024C00080BC704780B483B000AF786039603B68EF
:1024D0004FF400525A60002318460C37BD4680BCAA
:1024E000704780B483B000AF7860012318460C3782
:1024F000BD4680BC704780B485B000AFF860B9605D
:102500007A60002318461437BD4680BC704700002F
:1025100080B586B000AF7860144A154BD31A7B6142
:102520007B693B61134B1B68002B02D1114B124A94
:102530001A60104B1A687B6813443A699A4207D2B2
:1025400004F0F0FC03460C221A604FF0FF3309E060
:10255000084B1B68FB60074B1A687B681344054AED
:102560001360FB6818461837BD4680BD0050002038
:1025700000040000500300203805002080B400AFA4
:1025800000BFBD4680BC704780B596B000AF07F174
:10259000480300221A605A609A60DA6007F140032B
:1025A00000221A605A6007F1240300221A605A6060
:1025B0009A60DA601A615A619A613B1D20220021FB
:1025C000184604F05CFC504B504A1A604E4B0022F7
:1025D0005A604D4B00229A604B4B40F2E732DA6072
:1025E000494B00221A61484B00225A61464B002297
:1025F0009A61454802F06BFE0346002B01D0FFF7BD
:10260000E4FD4FF48053BB6407F1480319463E488C
:1026100003F068F80346002B01D0FFF7D6FD3A48D7
:1026200002F0A4FE0346002B01D0FFF7CEFD0023ED
:102630003B6400237B6407F140031946324803F0F2
:10264000C9FB0346002B01D0FFF7BFFD60237B626F
:102650000023BB620023FB6200233B6300237B63F8
:102660000023BB630023FB6307F124030022194608
:10267000254802F075FF0346002B01D0FFF7A5FDAA
:1026800007F12403042219461F4802F069FF03469C
:10269000002B01D0FFF799FD07F12403082219460A
:1026A000194802F05DFF0346002B01D0FFF78DFDB6
:1026B00007F124030C221946134802F051FF034688
:1026C000002B01D0FFF781FD00237B600023BB605E
:1026D0000023FB6000233B6100237B614FF4005328
:1026E000BB6100233B623B1D1946074803F0D0FB4A
:1026F0000346002B01D0FFF768FD034800F026F8E1
:1027000000BF5837BD4680BD54030020002C014057
:1027100080B485B000AF78607B681B68094A93423B
:102720000BD1094B9B69084A43F400639361064B44
:102730009B6903F40063FB60FB6800BF1437BD4670
:1027400080BC7047002C01400010024080B588B06A
:1027500000AF786007F1100300221A605A609A6097
:10276000DA607B681B68104A934218D10F4B9B6953
:102770000E4A43F0040393610C4B9B6903F004037E
:10278000FB60FB684FF470633B6102237B610223B3
:10279000FB6107F110031946054801F071F900BF0C
:1027A0002037BD4680BD00BF002C01400010024014
:1027B0000008014080B500AF114B124A1A60104B5F
:1027C0004FF4E1325A600E4B00229A600C4B00220B
:1027D000DA600B4B00221A61094B0C225A61084B3C
:1027E00000229A61064B0022DA61054803F0A1FB42
:1027F0000346002B01D0FFF7E8FC00BF80BD00BFFF
:102800009C0300200048004080B588B000AF78608D
:1028100007F1100300221A605A609A60DA607B6840
:102820001B681C4A934231D11B4BDB691A4A43F4A3
:102830008023D361184BDB6903F48023FB60FB68C2
:10284000154B9B69144A43F008039361124B9B6933
:1028500003F00803BB60BB684FF480633B61022355
:102860007B610323FB6107F1100319460B4801F05C
:1028700007F94FF400633B6100237B610023BB61D8
:1028800007F110031946054801F0FAF800BF203798
:10289000BD4680BD0048004000100240000C0140D1
:1028A000FFF76CFE0B480C490C4A002302E0D45899
:1028B000C4500433C4188C42F9D3094A094C00238C
:1028C00001E013600432A242FBD304F031FBFFF7B6
:1028D00085FB704700000020D401002068A6000896
:1028E000D401002034050020FEE7000080B500AFD1
:1028F000084B1B68074A43F010031360032000F0E5
:102900008FFE0F2000F008F8FFF7E8FC00231846C0
:1029100080BD00BF0020024080B582B000AF78606B
:10292000124B1A68124B1B7819464FF47A73B3FB9B
:10293000F1F3B2FBF3F3184600F0A7FE0346002BB9
:1029400001D001230EE07B680F2B0AD800227968A2
:102950004FF0FF3000F06FFE064A7B6813600023E3
:1029600000E0012318460837BD4680BD0000002066
:10297000080000200400002080B400AF054B1B7845
:102980001A46054B1B681344034A136000BFBD463B
:1029900080BC704708000020E403002080B400AF32
:1029A000024B1B681846BD4680BC7047E4030020FC
:1029B00080B584B000AF7860FFF7F0FFB8607B6847
:1029C000FB60FB68B3F1FF3F05D00A4B1B781A464A
:1029D000FB681344FB6000BFFFF7E0FF0246BB68E3
:1029E000D31AFA689A42F7D800BF00BF1037BD4625
:1029F00080BD00BF0800002080B586B000AF7860C1
:102A00000023FB7500233B610023BB600023FB60B8
:102A10007B68002B01D10123BEE07B689B68002B03
:102A20007B689B6A002B09D17B680022DA627B6895
:102A3000002283F824207868FEF70AFF786800F007
:102A400073FC0346FB757B689B6A03F01003002B45
:102A500040F09980FB7D002B40F095807B689B6A5D
:102A600023F4885323F0020343F002027B689A6246
:102A70007B685A687B68DB691A437B681B7B5B0059
:102A80001343BA681343BB607B689B68B3F5807FD0
:102A900003D07B689B68012B02D14FF4807300E068
:102AA00000233A6913433B617B681B7D012B19D1DD
:102AB0007B681B7B002B09D17B689B69013B5A0318
:102AC0003B69134343F400633B610BE07B689B6A03
:102AD00043F020027B689A627B68DB6A43F0010264
:102AE0007B68DA627B681B685B6823F469417B68FA
:102AF0001B683A690A435A607B681B689A68284BCE
:102B000013407A681268B9680B4393607B689B68CE
:102B1000B3F5807F03D07B689B68012B04D17B6871
:102B20001B69013B1B05FB607B681B68DB6A23F4A8
:102B300070017B681B68FA680A43DA627B681B686D
:102B40009A68184B1340BA689A420BD17B680022EE
:102B5000DA627B689B6A23F0030343F001027B681F
:102B60009A6218E07B689B6A23F0120343F010021C
:102B70007B689A627B68DB6A43F001027B68DA62F9
:102B80000123FB7507E07B689B6A43F010027B68BA
:102B90009A620123FB75FB7D18461837BD4680BD40
:102BA000FDF7E1FFFE0E1FFF80B584B000AF786037
:102BB0000023FB737B6893F82430012B01D102239F
:102BC000A0E07B68012283F82420786800F052FBA3
:102BD0000346FB73FB7B002B40F08F807B689B6A76
:102BE00023F4706323F0010343F480727B689A62DC
:102BF0007B681B68454A934205D1454B5B6803F4EB
:102C00007023002B15D17B689B6A23F480127B68AC
:102C10009A627B681B685B6803F48063002B26D094
:102C20007B689B6A23F4405343F480527B689A622A
:102C30001DE07B689B6A43F480127B689A627B6824
:102C40001B68334A934204D07B681B682F4A934227
:102C50000DD12F4B5B6803F48063002B07D07B689A
:102C60009B6A23F4405343F480527B689A627B68EA
:102C70009B6A03F48053002B06D07B68DB6A23F049
:102C800006027B68DA6202E07B680022DA627B6817
:102C9000002283F824207B681B686FF002021A6010
:102CA0007B681B685A687B681B6842F020025A6088
:102CB0007B681B689B6803F46023B3F5602F13D116
:102CC0007B681B68114A934205D1114B5B6803F482
:102CD0007023002B08D17B681B689A687B681B688F
:102CE00042F4A0029A600CE07B681B689A687B68DB
:102CF0001B6842F480129A6003E07B68002283F82C
:102D00002420FB7B18461037BD4680BD00280140BB
:102D10000024014080B586B000AFF860B9607A60E9
:102D20000023FB75FB681B68644A934204D0FB6870
:102D30001B68634A934206D1604B5B6803F47023BF
:102D4000002B40F0B380FB6893F82430012B01D1B5
:102D50000223AEE0FB68012283F82420F86800F02B
:102D600089FA0346FB75FB7D002B40F09A80FB68D7
:102D70009B6A23F4706323F0010343F48072FB68C1
:102D80009A62FB681B684E4A934205D14B4B5B68C5
:102D900003F47023002B15D1FB689B6A23F4801287
:102DA000FB689A62FB681B685B6803F48063002B16
:102DB00026D0FB689B6A23F4405343F48052FB689F
:102DC0009A621DE0FB689B6A43F48012FB689A627A
:102DD000FB681B68394A934204D0FB681B68384A79
:102DE00093420DD1354B5B6803F48063002B07D011
:102DF000FB689B6A23F4405343F48052FB689A6259
:102E0000FB689B6A03F48053002B06D0FB68DB6AE7
:102E100023F00602FB68DA6202E0FB680022DA6255
:102E2000FB68002283F82420FB681B6A254A9A620B
:102E3000FB681B6A244ADA62FB681B6A234A1A632E
:102E4000FB681B686FF002021A60FB681B689A68D7
:102E5000FB681B6842F480729A60FB68186AFB6822
:102E60001B684C331946BA687B6800F075FCFB6838
:102E70001B689B6803F46023B3F5602F08D1FB68DF
:102E80001B689A68FB681B6842F4A0029A600FE016
:102E9000FB681B689A68FB681B6842F480129A60A2
:102EA00006E0FB68002283F8242001E00123FB7583
:102EB000FB7D18461837BD4680BD00BF0024014089
:102EC00000280140AB3300082734000843340008D1
:102ED00080B584B000AF78607B681B681B68FB60BE
:102EE0007B681B685B68BB60BB6803F02003002B3A
:102EF0003ED0FB6803F00203002B39D07B689B6A4D
:102F000003F01003002B05D17B689B6A43F4007229
:102F10007B689A627B681B689B6803F46023B3F547
:102F2000602F1DD17B681B7B002B19D17B681B6830
:102F30005A687B681B6822F020025A607B689B6A93
:102F400023F480727B689A627B689B6A03F48053E7
:102F5000002B05D17B689B6A43F001027B689A6273
:102F60007868FEF7A3FF7B681B686FF012021A6097
:102F7000BB6803F08003002B4DD0FB6803F0040313
:102F8000002B48D07B689B6A03F01003002B05D10F
:102F90007B689B6A43F400527B689A627B681B687B
:102FA0009B6803F4E043B3F5E04F12D07B681B68E5
:102FB0005B6803F48063002B25D17B681B689B68EA
:102FC00003F46023B3F5602F1DD17B681B7B002BBE
:102FD00019D17B681B685A687B681B6822F08002E5
:102FE0005A607B689B6A23F480527B689A627B6894
:102FF0009B6A03F48073002B05D17B689B6A43F0C6
:1030000001027B689A62786800F035FA7B681B6879
:103010006FF00C021A60BB6803F04003002B12D063
:10302000FB6803F00103002B0DD07B689B6A43F41F
:1030300080327B689A62786800F012F87B681B68BF
:103040006FF001021A6000BF1037BD4680BD80B42A
:1030500083B000AF786000BF0C37BD4680BC7047BE
:1030600080B483B000AF786000BF0C37BD4680BC31
:10307000704780B483B000AF786000BF0C37BD46A6
:1030800080BC704780B485B000AF786039600023A1
:10309000FB730023BB607B6893F82430012B01D1C4
:1030A0000223DCE07B68012283F824203B685B6814
:1030B000062B1CD87B681B68596B3B685A68134603
:1030C0009B001344053B1F2202FA03F3DB43194024
:1030D0003B6818683B685A6813469B001344053BDD
:1030E00000FA03F27B681B680A435A633CE03B68C2
:1030F0005B680C2B1CD87B681B68196B3B685A6893
:1031000013469B001344233B1F2202FA03F3DB43C5
:1031100019403B6818683B685A6813469B00134483
:10312000233B00FA03F27B681B680A431A631BE027
:103130007B681B68D96A3B685A6813469B00134436
:10314000413B1F2202FA03F3DB4319403B68186836
:103150003B685A6813469B001344413B00FA03F254
:103160007B681B680A43DA623B681B68092B1CD921
:103170007B681B68D9683B681A6813465B00134478
:103180001E3B072202FA03F3DB4319403B689868B1
:103190003B681A6813465B0013441E3B00FA03F2B7
:1031A0007B681B680A43DA6019E07B681B68196951
:1031B0003B681A6813465B001344072202FA03F3C4
:1031C000DB4319403B6898683B681A6813465B000C
:1031D000134400FA03F27B681B680A431A613B68D8
:1031E0001B68102B03D03B681B68112B32D17B6806
:1031F0001B681D4A934225D17B681B689B6803F4BA
:103200000003002B26D17B681B689A687B681B68CB
:1032100042F400029A603B681B68102B1AD1134BD2
:103220001B68134AA2FB03239A0C13469B0013440A
:103230005B00BB6002E0BB68013BBB60BB68002B6E
:10324000F9D107E07B689B6A43F020027B689A62B1
:103250000123FB737B68002283F82420FB7B184644
:103260001437BD4680BC7047002401400000002098
:1032700083DE1B4380B584B000AF78600023FB6021
:103280000023BB607B681B689B6803F00103012B74
:1032900040D07B681B689A687B681B6842F001021B
:1032A0009A601F4B1B681F4AA2FB03239B0CBB6049
:1032B00002E0BB68013BBB60BB68002BF9D1FFF7A4
:1032C0006DFBF8601FE0FFF769FB0246FB68D31A4D
:1032D000022B18D97B681B689B6803F00103012B44
:1032E00011D07B689B6A43F010027B689A627B680E
:1032F000DB6A43F001027B68DA627B68002283F8B4
:103300002420012307E07B681B689B6803F001030E
:10331000012BD8D1002318461037BD4680BD00BF11
:103320000000002083DE1B4380B584B000AF7860CE
:103330000023FB607B681B689B6803F00103012B83
:103340002ED17B681B689A687B681B6822F001029B
:103350009A60FFF723FBF8601BE0FFF71FFB0246B4
:10336000FB68D31A022B14D97B681B689B6803F097
:103370000103012B0DD17B689B6A43F010027B682F
:103380009A627B68DB6A43F001027B68DA620123A0
:1033900007E07B681B689B6803F00103012BDCD00E
:1033A000002318461037BD4680BD80B584B000AFFD
:1033B00078607B685B6AFB60FB689B6A03F0500384
:1033C000002B27D1FB689B6A43F40072FB689A626A
:1033D000FB681B689B6803F46023B3F5602F15D16D
:1033E000FB681B7B002B11D1FB689B6A23F4807266
:1033F000FB689A62FB689B6A03F48053002B05D13B
:10340000FB689B6A43F00102FB689A62F868FEF76A
:103410004DFD04E0FB681B6A1B6B7868984700BF92
:103420001037BD4680BD80B584B000AF78607B6842
:103430005B6AFB60F868FFF70AFE00BF1037BD4605
:1034400080BD80B584B000AF78607B685B6AFB604C
:10345000FB689B6A43F04002FB689A62FB68DB6A88
:1034600043F00402FB68DA62F868FFF702FE00BF6F
:103470001037BD4680BD80B483B000AF786000BF18
:103480000C37BD4680BC704780B485B000AF786013
:103490007B6803F00703FB600C4BDB68BB60BA681A
:1034A0004FF6FF031340BB60FB681A02BB6813436F
:1034B00043F0BF6343F40033BB60044ABB68D3608E
:1034C00000BF1437BD4680BC704700BF00ED00E070
:1034D00080B400AF044BDB681B0A03F007031846F7
:1034E000BD4680BC704700BF00ED00E080B483B0F3
:1034F00000AF0346FB7197F90730002B0BDBFB791C
:1035000003F01F02064997F907305B09012000FA12
:1035100002F241F8232000BF0C37BD4680BC704743
:1035200000E100E080B483B000AF03463960FB7176
:1035300097F90730002B0ADB3B68DAB20C4997F9A0
:1035400007301201D2B20B4483F800230AE03B6833
:10355000DAB20849FB7903F00F03043B1201D2B23F
:103560000B441A7600BF0C37BD4680BC704700BFC5
:1035700000E100E000ED00E080B489B000AFF86049
:10358000B9607A60FB6803F00703FB61FB69C3F174
:103590000703042B28BF0423BB61FB690433062BFC
:1035A00002D9FB69033B00E000237B614FF0FF324F
:1035B000BB6902FA03F3DA43BB681A407B699A409D
:1035C0004FF0FF317B6901FA03F3D9437B680B406D
:1035D000134318462437BD4680BC704780B582B07F
:1035E00000AF78607B68013BB3F1807F01D301239A
:1035F0000FE00A4A7B68013B53600F214FF0FF3018
:10360000FFF790FF054B00229A60044B07221A60D7
:10361000002318460837BD4680BD00BF10E000E01B
:1036200080B582B000AF78607868FFF72DFF00BFEB
:103630000837BD4680BD80B586B000AF0346B9608F
:103640007A60FB7300237B61FFF742FF78617A6841
:10365000B9687869FFF790FF024697F90F30114675
:103660001846FFF75FFF00BF1837BD4680BD80B525
:1036700082B000AF0346FB7197F907301846FFF799
:1036800035FF00BF0837BD4680BD80B582B000AFB2
:1036900078607868FFF7A2FF034618460837BD46F2
:1036A00080BD000080B485B000AF78600023FB606F
:1036B0007B68002B01D1012343E07B681B681A461D
:1036C000224B1344224AA2FB03231B099A007B6866
:1036D0001A647B681F4ADA637B68022283F8212020
:1036E0007B681B681B68FB60FB6823F47F5323F037
:1036F0003003FB607B685A687B689B681A437B6871
:10370000DB681A437B681B691A437B685B691A4351
:103710007B689B691A437B68DB691343FA68134330
:10372000FB607B681B68FA681A607B6800229A63FA
:103730007B68012283F821207B68002283F8202007
:10374000002318461437BD4680BC7047F8FFFDBF04
:10375000CDCCCCCC0000024080B586B000AFF86084
:10376000B9607A603B600023FB75FB6893F82030FA
:10377000012B01D102234BE0FB68012283F82020BA
:10378000FB6893F82130DBB2012B3AD1FB680222AF
:1037900083F82120FB6800229A63FB681B681A6883
:1037A000FB681B6822F001021A603B687A68B968FE
:1037B000F86800F037F9FB68DB6A002B08D0FB687B
:1037C0001B681A68FB681B6842F00E021A600FE063
:1037D000FB681B681A68FB681B6822F004021A6009
:1037E000FB681B681A68FB681B6842F00A021A60D3
:1037F000FB681B681A68FB681B6842F001021A60CC
:1038000005E0FB68002283F820200223FB75FB7D86
:1038100018461837BD4680BD80B584B000AF7860CB
:103820007B68DB6B1B68FB607B681B681B68BB608D
:103830007B681B6C04229A40FB681340002B4FD01E
:10384000BB6803F00403002B4AD07B681B681B682D
:1038500003F02003002B07D17B681B681A687B6884
:103860001B6822F004021A607B681B68664A934258
:1038700029D07B681B68654A934222D07B681B680D
:10388000634A93421AD07B681B68624A934212D003
:103890007B681B68604A93420AD07B681B685F4A5A
:1038A000934202D14FF480030EE04FF080630BE0AF
:1038B0004FF4802308E04FF4804305E04FF4806329
:1038C00002E0402300E00423554A53607B68DB6A32
:1038D000002B00F094807B68DB6A786898478EE064
:1038E0007B681B6C02229A40FB681340002B56D069
:1038F000BB6803F00203002B51D07B681B681B6878
:1039000003F02003002B0BD17B681B681A687B68CF
:103910001B6822F00A021A607B68012283F82120CA
:103920007B681B68384A934229D07B681B68374AFA
:10393000934222D07B681B68354A93421AD07B6839
:103940001B68344A934212D07B681B68324A934208
:103950000AD07B681B68314A934202D14FF40013AE
:103960000EE04FF000730BE04FF4003308E04FF42B
:10397000005305E04FF4007302E0202300E002232F
:10398000274A53607B68002283F820207B689B6A6B
:10399000002B34D07B689B6A786898472FE07B685F
:1039A0001B6C08229A40FB681340002B28D0BB6890
:1039B00003F00803002B23D07B681B681A687B6820
:1039C0001B6822F00E021A607B681A6C7B68DB6B46
:1039D000012101FA02F25A607B6801229A637B6836
:1039E000012283F821207B68002283F820207B6855
:1039F0001B6B002B04D07B681B6B7868984700BF5B
:103A000000BF1037BD4680BD080002401C000240C8
:103A10003000024044000240580002406C00024066
:103A20000000024080B485B000AFF860B9607A60F1
:103A30003B60FB681A6CFB68DB6B012101FA02F248
:103A40005A60FB681B683A685A60FB685B68102B19
:103A500008D1FB681B687A689A60FB681B68BA68C3
:103A6000DA6007E0FB681B68BA689A60FB681B684D
:103A70007A68DA6000BF1437BD4680BC704700002A
:103A800080B48BB000AF7860396000237B62002384
:103A90003B6269E101227B6A02FA03F3FB613B6846
:103AA0001B68FA691340BB61BA69FB699A4240F02E
:103AB00058813B685B689A4A93425ED0984A934229
:103AC00075D8984A934258D0964A93426FD8964AEE
:103AD000934252D0944A934269D8944A93424CD02C
:103AE000924A934263D8924A934246D0904A934274
:103AF0005DD8122B2AD8122B59D801A252F823F0E4
:103B00007B3B0008553B0008673B0008A93B0008C9
:103B1000AF3B0008AF3B0008AF3B0008AF3B0008DD
:103B2000AF3B0008AF3B0008AF3B0008AF3B0008CD
:103B3000AF3B0008AF3B0008AF3B0008AF3B0008BD
:103B4000AF3B00085D3B0008713B0008794A934297
:103B500013D02CE03B68DB683B6229E03B68DB6804
:103B600004333B6224E03B68DB6808333B621FE0C0
:103B70003B68DB680C333B621AE03B689B68002BB8
:103B800002D104233B6213E03B689B68012B05D103
:103B900008233B627B68FA691A6109E008233B62EB
:103BA0007B68FA695A6103E000233B6200E000BFD2
:103BB000BB69FF2B01D87B6801E07B6804337B6124
:103BC000BB69FF2B02D87B6A9B0002E07B6A083B43
:103BD0009B003B617B691A680F213B6901FA03F383
:103BE000DB431A40396A3B6901FA03F31A437B69E4
:103BF0001A603B685B6803F08053002B00F0B180D3
:103C00004D4B9B694C4A43F0010393614A4B9B69BE
:103C100003F00103BB60BB68484A7B6A9B08023320
:103C200052F82330FB607B6A03F003039B000F22F2
:103C300002FA03F3DB43FA681340FB607B68404AF7
:103C4000934213D07B683F4A93420DD07B683E4A33
:103C5000934207D07B683D4A934201D1032306E09B
:103C6000042304E0022302E0012300E000237A6A37
:103C700002F0030292009340FA681343FB602F495D
:103C80007B6A9B080233FA6841F823203B685B6833
:103C900003F48013002B06D02D4B9A682C49BB6986
:103CA00013438B6006E02A4B9A68BB69DB432849C3
:103CB00013408B603B685B6803F40013002B06D055
:103CC000234BDA682249BB691343CB6006E0204BE3
:103CD000DA68BB69DB431E491340CB603B685B6815
:103CE00003F40033002B06D0194B5A681849BB69FE
:103CF00013434B6006E0164B5A68BB69DB4314491B
:103D000013404B603B685B6803F48033002B21D089
:103D10000F4B1A680E49BB6913430B6021E000BFCB
:103D200000003210000031100000221000002110AD
:103D300000001210000011100010024000000140AD
:103D400000080140000C0140001001400014014037
:103D5000000401400B4B1A68BB69DB43094913405F
:103D60000B607B6A01337B623B681A687B6A22FACC
:103D700003F3002B7FF48EAE00BF00BF2C37BD468F
:103D800080BC70470004014080B485B000AF78600B
:103D90000B467B807B689A687B881340002B02D09F
:103DA0000123FB7301E00023FB73FB7B18461437F0
:103DB000BD4680BC704780B483B000AF78600B46CE
:103DC0007B8013467B707B78002B03D07A887B68DE
:103DD0001A6103E07B881A047B681A6100BF0C3704
:103DE000BD4680BC7047000080B582B000AF03467E
:103DF000FB80084B5A69FB881340002B06D0054A0C
:103E0000FB885361FB881846FEF778F800BF083737
:103E1000BD4680BD0004014080B586B000AF78602B
:103E20007B68002B01D1012372E27B681B6803F0E1
:103E30000103002B00F08780924B5B6803F00C03BA
:103E4000042B0CD08F4B5B6803F00C03082B12D1B2
:103E50008C4B5B6803F48033B3F5803F0BD1894B07
:103E60001B6803F40033002B6CD07B685B68002B6D
:103E700068D101234CE27B685B68B3F5803F06D1D3
:103E8000804B1B687F4A43F4803313602EE07B68CD
:103E90005B68002B0CD17B4B1B687A4A23F4803380
:103EA0001360784B1B68774A23F4802313601DE06E
:103EB0007B685B68B3F5A02F0CD1724B1B68714A0D
:103EC00043F4802313606F4B1B686E4A43F48033C6
:103ED00013600BE06B4B1B686A4A23F4803313605A
:103EE000684B1B68674A23F4802313607B685B6818
:103EF000002B13D0FEF752FD386108E0FEF74EFDAF
:103F000002463B69D31A642B01D9032300E25D4BBF
:103F10001B6803F40033002BF0D014E0FEF73EFDE5
:103F2000386108E0FEF73AFD02463B69D31A642B7C
:103F300001D90323ECE1534B1B6803F40033002B3E
:103F4000F0D100E000BF7B681B6803F00203002B88
:103F500063D04C4B5B6803F00C03002B0BD0494B38
:103F60005B6803F00C03082B1CD1464B5B6803F421
:103F70008033002B16D1434B1B6803F00203002B48
:103F800005D07B681B69012B01D00123C0E13D4BAB
:103F90001B6823F0F8027B685B69DB003949134337
:103FA0000B603AE07B681B69002B20D0364B012266
:103FB0001A60FEF7F3FC386108E0FEF7EFFC0246FA
:103FC0003B69D31A022B01D90323A1E12D4B1B68B6
:103FD00003F00203002BF0D02A4B1B6823F0F802F9
:103FE0007B685B69DB00274913430B6015E0264BB8
:103FF00000221A60FEF7D2FC386108E0FEF7CEFC22
:1040000002463B69D31A022B01D9032380E11D4BE1
:104010001B6803F00203002BF0D17B681B6803F0E0
:104020000803002B3AD07B689B69002B19D0174BF3
:1040300001221A60FEF7B2FC386108E0FEF7AEFC20
:1040400002463B69D31A022B01D9032360E10D4BD1
:104050005B6A03F00203002BF0D0012000F0CEFADF
:104060001CE00A4B00221A60FEF798FC38610FE052
:10407000FEF794FC02463B69D31A022B08D90323AE
:1040800046E100BF0010024000004242800442426C
:10409000924B5B6A03F00203002BE9D17B681B683B
:1040A00003F00403002B00F0A6800023FB758B4B6C
:1040B000DB6903F08053002B0DD1884BDB69874A05
:1040C00043F08053D361854BDB6903F08053BB60C1
:1040D000BB680123FB75824B1B6803F48073002BC4
:1040E00018D17F4B1B687E4A43F480731360FEF740
:1040F00055FC386108E0FEF751FC02463B69D31AD3
:10410000642B01D9032303E1754B1B6803F480730F
:10411000002BF0D07B68DB68012B06D16F4B1B6A4C
:104120006E4A43F0010313622DE07B68DB68002BCD
:104130000CD16A4B1B6A694A23F001031362674B77
:104140001B6A664A23F0040313621CE07B68DB6889
:10415000052B0CD1614B1B6A604A43F004031362C8
:104160005E4B1B6A5D4A43F0010313620BE05B4B3D
:104170001B6A5A4A23F001031362584B1B6A574AC1
:1041800023F0040313627B68DB68002B15D0FEF775
:1041900005FC38610AE0FEF701FC02463B69D31AD0
:1041A00041F28832934201D90323B1E04B4B1B6AA1
:1041B00003F00203002BEED014E0FEF7EFFB3861B2
:1041C0000AE0FEF7EBFB02463B69D31A41F2883264
:1041D000934201D903239BE0404B1B6A03F0020387
:1041E000002BEED1FB7D012B05D13C4BDB693B4A1B
:1041F00023F08053D3617B68DB69002B00F087805C
:10420000364B5B6803F00C03082B61D07B68DB69DD
:10421000022B46D1334B00221A60FEF7BFFB3861F8
:1042200008E0FEF7BBFB02463B69D31A022B01D91B
:1042300003236DE0294B1B6803F00073002BF0D1C2
:104240007B681B6AB3F5803F08D1244B5B6823F47D
:1042500000327B689B68214913434B601F4B5B68AE
:1042600023F474127B68196A7B685B6A0B431B49F1
:1042700013434B601B4B01221A60FEF78FFB386122
:1042800008E0FEF78BFB02463B69D31A022B01D9EB
:1042900003233DE0114B1B6803F00073002BF0D0AB
:1042A00035E0104B00221A60FEF778FB386108E019
:1042B000FEF774FB02463B69D31A022B01D9032394
:1042C00026E0064B1B6803F00073002BF0D11EE0C4
:1042D0007B68DB69012B07D1012319E00010024044
:1042E00000700040600042420B4B5B68FB60FB6863
:1042F00003F480327B681B6A9A4206D1FB6803F4A0
:1043000070127B685B6A9A4201D0012300E00023AF
:1043100018461837BD4680BD0010024080B584B0F5
:1043200000AF786039607B68002B01D10123D0E0B9
:104330006A4B1B6803F007033A689A4210D9674B2F
:104340001B6823F0070265493B6813430B60634B0E
:104350001B6803F007033A689A4201D00123B8E0D2
:104360007B681B6803F00203002B20D07B681B686E
:1043700003F00403002B05D0594B5B68584A43F403
:10438000E06353607B681B6803F00803002B05D0D3
:10439000534B5B68524A43F460535360504B5B6825
:1043A00023F0F0027B689B684D4913434B607B68A8
:1043B0001B6803F00103002B40D07B685B68012B76
:1043C00007D1474B1B6803F40033002B15D10123A1
:1043D0007FE07B685B68022B07D1414B1B6803F0D1
:1043E0000073002B09D1012373E03D4B1B6803F0E0
:1043F0000203002B01D101236BE0394B5B6823F0F2
:1044000003027B685B68364913434B60FEF7C6FACC
:10441000F8600AE0FEF7C2FA0246FB68D31A41F2DE
:104420008832934201D9032353E02D4B5B6803F09C
:104430000C027B685B689B009A42EBD1274B1B68A0
:1044400003F007033A689A4210D2244B1B6823F00A
:10445000070222493B6813430B60204B1B6803F0A3
:1044600007033A689A4201D0012332E07B681B6857
:1044700003F00403002B08D0194B5B6823F4E062BF
:104480007B68DB68164913434B607B681B6803F04D
:104490000803002B09D0124B5B6823F460527B6841
:1044A0001B69DB000E4913434B6000F021F8024604
:1044B0000B4B5B681B0903F00F030A49CB5C22FA24
:1044C00003F3094A1360094B1B681846FEF724FAE8
:1044D000002318461037BD4680BD00BF00200240B3
:1044E00000100240DCA000080000002004000020B2
:1044F00080B487B000AF0023FB600023BB600023C3
:104500007B6100237B6000233B611E4B5B68FB608B
:10451000FB6803F00C03042B02D0082B03D027E028
:10452000194B3B6127E0FB689B0C03F00F03174A14
:10453000D35C7B60FB6803F48033002B10D0114BFD
:104540005B685B0C03F00103114AD35CBB607B68C2
:104550000D4A03FB02F2BB68B2FBF3F37B6104E09C
:104560007B680C4A02FB03F37B617B693B6102E0E1
:10457000054B3B6100BF3B6918461C37BD4680BCFC
:10458000704700BF0010024000127A00F4A000083B
:1045900004A1000800093D0080B400AF024B1B6875
:1045A0001846BD4680BC70470000002080B500AFB3
:1045B000FFF7F2FF0246054B5B681B0A03F0070397
:1045C0000349CB5C22FA03F3184680BD0010024079
:1045D000ECA0000880B500AFFFF7DEFF0246054BF8
:1045E0005B68DB0A03F007030349CB5C22FA03F3A1
:1045F000184680BD00100240ECA0000880B485B0D1
:1046000000AF78600A4B1B680A4AA2FB03235B0ACF
:104610007A6802FB03F3FB6000BFFB685A1EFA6076
:10462000002BF9D100BF00BF1437BD4680BC7047D6
:1046300000000020D34D621080B586B000AF7860D6
:1046400000233B610023FB607B681B6803F00103D0
:10465000002B7DD00023FB754F4BDB6903F08053AB
:10466000002B0DD14C4BDB694B4A43F08053D36197
:10467000494BDB6903F08053BB60BB680123FB75CA
:10468000464B1B6803F48073002B18D1434B1B6807
:10469000424A43F480731360FEF780F9386108E002
:1046A000FEF77CF902463B69D31A642B01D9032338
:1046B0006DE03A4B1B6803F48073002BF0D0364B4F
:1046C0001B6A03F44073FB60FB68002B2ED07B68F1
:1046D0005B6803F44073FA689A4227D02E4B1B6A3A
:1046E00023F44073FB602E4B01221A602C4B0022F6
:1046F0001A60294AFB681362FB6803F00103002B70
:1047000014D0FEF74BF938610AE0FEF747F902468C
:104710003B69D31A41F28832934201D9032336E030
:104720001D4B1B6A03F00203002BEED01A4B1B6AD1
:1047300023F440727B685B68174913430B62FB7D6F
:10474000012B05D1144BDB69134A23F08053D3614D
:104750007B681B6803F00203002B08D00E4B5B68DC
:1047600023F440427B689B680B4913434B607B6892
:104770001B6803F01003002B08D0074B5B6823F481
:1047800080027B68DB68044913434B6000231846B2
:104790001837BD4680BD00BF0010024000700040C9
:1047A0004004424280B582B000AF78607B68002B45
:1047B00001D1012376E07B685B6A002B08D17B681E
:1047C0005B68B3F5827F09D07B680022DA6105E07F
:1047D0007B6800221A617B6800225A617B68002294
:1047E0009A627B6893F85130DBB2002B06D17B686C
:1047F000002283F850207868FDF724FD7B680222B0
:1048000083F851207B681B681A687B681B6822F05C
:1048100040021A607B685B6803F482727B689B6865
:1048200003F404431A437B68DB6803F400631A4310
:104830007B681B6903F002031A437B685B6903F022
:1048400001031A437B689B6903F400731A437B6876
:10485000DB6903F038031A437B681B6A03F08003AB
:1048600042EA03017B689B6A03F400527B681B6881
:104870000A431A607B689B691A0C7B681B6802F00C
:1048800004025A607B681B68DA697B681B6822F443
:104890000062DA617B6800225A657B68012283F836
:1048A0005120002318460837BD4680BD80B588B02A
:1048B00000AFF860B9603B601346FB80FEF76EF80E
:1048C000F861FB887B83FB6893F85130DBB2012BE6
:1048D00001D002232AE1BB68002B02D0FB88002B09
:1048E00001D1012322E1FB6893F85030012B01D163
:1048F00002231BE1FB68012283F85020FB6803229E
:1049000083F85120FB6800225A65FB68BA681A6375
:10491000FB68FA889A86FB68FA88DA86FB680022C8
:104920009A63FB6800229A87FB680022DA87FB689B
:1049300000225A64FB6800221A64FB689B68B3F586
:10494000004F0FD1FB681B681A68FB681B6822F0D8
:1049500040021A60FB681B681A68FB681B6842F417
:1049600080421A60FB681B681B6803F04003402B01
:1049700007D0FB681B681A68FB681B6842F040029E
:104980001A60FB68DB68B3F5006F52D1FB685B68A7
:10499000002B02D07B8B012B45D1FB681B6B1A8847
:1049A000FB681B68DA60FB681B6B9A1CFB681A6368
:1049B000FB68DB8E9BB2013B9AB2FB68DA8632E081
:1049C000FB681B689B6803F00203022B12D1FB6893
:1049D0001B6B1A88FB681B68DA60FB681B6B9A1CF0
:1049E000FB681A63FB68DB8E9BB2013B9AB2FB68E3
:1049F000DA8618E0FDF7D2FF0246FB69D31A3A685F
:104A00009A4203D83B68B3F1FF3F02D13B68002BC9
:104A100009D1FB68012283F85120FB68002283F84A
:104A20005020032382E0FB68DB8E9BB2002BC7D1B2
:104A300053E0FB685B68002B02D07B8B012B47D1D6
:104A4000FB681A6BFB681B680C3312781A70FB68E2
:104A50001B6B5A1CFB681A63FB68DB8E9BB2013B25
:104A60009AB2FB68DA8633E0FB681B689B6803F048
:104A70000203022B13D1FB681A6BFB681B680C3313
:104A800012781A70FB681B6B5A1CFB681A63FB6870
:104A9000DB8E9BB2013B9AB2FB68DA8618E0FDF729
:104AA0007DFF0246FB69D31A3A689A4203D83B68F5
:104AB000B3F1FF3F02D13B68002B09D1FB68012213
:104AC00083F85120FB68002283F8502003232DE057
:104AD000FB68DB8E9BB2002BC6D1FA693968F86897
:104AE00000F0C4FB0346002B02D0FB6820225A656D
:104AF000FB689B68002B0AD100237B61FB681B6865
:104B0000DB687B61FB681B689B687B617B69FB687A
:104B1000012283F85120FB68002283F85020FB68B3
:104B20005B6D002B01D0012300E0002318462037E5
:104B3000BD4680BD80B588B002AFF860B9603B600B
:104B40001346FB80FB6893F85130DBB2012B01D098
:104B5000022304E1FB685B68B3F5827F12D1FB6836
:104B60009B68002B0ED1FB68042283F85120FA8841
:104B70003B6800931346BA68B968F86800F0F3F828
:104B80000346ECE0FDF70AFF7861BB68002B02D01A
:104B9000FB88002B01D10123E1E0FB6893F8503042
:104BA000012B01D10223DAE0FB68012283F85020B7
:104BB000FB68042283F85120FB6800225A65FB68D9
:104BC000BA689A63FB68FA889A87FB68FA88DA877A
:104BD000FB6800221A63FB6800229A86FB680022A9
:104BE000DA86FB6800221A64FB6800225A64FB68BC
:104BF0009B68B3F5004F0FD1FB681B681A68FB6810
:104C00001B6822F040021A60FB681B681A68FB6888
:104C10001B6822F480421A60FB681B681B6803F063
:104C20004003402B07D0FB681B681A68FB681B68B1
:104C300042F040021A60FB68DB68002B70D135E05F
:104C4000FB681B689B6803F00103012B15D1FB680F
:104C50001B6803F10C02FB689B6B1278D2B21A70CE
:104C6000FB689B6B5A1CFB689A63FB68DB8F9BB2EB
:104C7000013B9AB2FB68DA8718E0FDF78FFE024627
:104C80007B69D31A3A689A4203D83B68B3F1FF3F75
:104C900002D13B68002B09D1FB68012283F8512027
:104CA000FB68002283F85020032358E0FB68DB8F69
:104CB0009BB2002BC4D138E0FB681B689B6803F0F3
:104CC0000103012B13D1FB681B68DA68FB689B6B3F
:104CD00092B21A80FB689B6B9A1CFB689A63FB6814
:104CE000DB8F9BB2013B9AB2FB68DA8718E0FDF7D5
:104CF00055FE02467B69D31A3A689A4203D83B684C
:104D0000B3F1FF3F02D13B68002B09D1FB680122C0
:104D100083F85120FB68002283F8502003231EE013
:104D2000FB68DB8F9BB2002BC6D17A693968F868C3
:104D300000F04AFA0346002B02D0FB6820225A6595
:104D4000FB68012283F85120FB68002283F8502081
:104D5000FB685B6D002B01D0012300E000231846A7
:104D60001837BD4680BD80B58AB000AFF860B96025
:104D70007A607B8001237B62FDF710FE3862FB685E
:104D800093F85130FB77FB685B68BB617B88FB82E3
:104D9000FB7F012B0CD0BB69B3F5827F06D1FB688A
:104DA0009B68002B02D1FB7F042B01D002237FE103
:104DB000BB68002B05D07B68002B02D07B88002BC2
:104DC00001D1012374E1FB6893F85030012B01D12C
:104DD00002236DE1FB68012283F85020FB6893F801
:104DE0005130DBB2042B03D0FB68052283F851203D
:104DF000FB6800225A65FB687A689A63FB687A88C8
:104E0000DA87FB687A889A87FB68BA681A63FB6856
:104E10007A88DA86FB687A889A86FB6800221A64A8
:104E2000FB6800225A64FB681B681B6803F04003A0
:104E3000402B07D0FB681B681A68FB681B6842F0B0
:104E400040021A60FB68DB68B3F5006F7ED1FB6837
:104E50005B68002B02D0FB8A012B6CD1FB681B6BBB
:104E60001A88FB681B68DA60FB681B6B9A1CFB687E
:104E70001A63FB68DB8E9BB2013B9AB2FB68DA8651
:104E800059E0FB681B689B6803F00203022B1BD1EF
:104E9000FB68DB8E9BB2002B16D07B6A012B13D1F3
:104EA000FB681B6B1A88FB681B68DA60FB681B6B6E
:104EB0009A1CFB681A63FB68DB8E9BB2013B9AB2BB
:104EC000FB68DA8600237B62FB681B689B6803F043
:104ED0000103012B19D1FB68DB8F9BB2002B14D08F
:104EE000FB681B68DA68FB689B6B92B21A80FB68F0
:104EF0009B6B9A1CFB689A63FB68DB8F9BB2013B40
:104F00009AB2FB68DA8701237B62FDF747FD024610
:104F10003B6AD31A3A6B9A420DD83B6BB3F1FF3F11
:104F200009D0FB68012283F85120FB68002283F836
:104F300050200323BCE0FB68DB8E9BB2002BA0D18A
:104F4000FB68DB8F9BB2002B9BD182E0FB685B6828
:104F5000002B02D0FB8A012B71D1FB681A6BFB6816
:104F60001B680C3312781A70FB681B6B5A1CFB68A9
:104F70001A63FB68DB8E9BB2013B9AB2FB68DA8650
:104F80005DE0FB681B689B6803F00203022B1CD1E9
:104F9000FB68DB8E9BB2002B17D07B6A012B14D1F0
:104FA000FB681A6BFB681B680C3312781A70FB687D
:104FB0001B6B5A1CFB681A63FB68DB8E9BB2013BC0
:104FC0009AB2FB68DA8600237B62FB681B689B68E9
:104FD00003F00103012B19D1FB68DB8F9BB2002B7F
:104FE00014D0FB681B68DA68FB689B6BD2B21A703E
:104FF000FB689B6B5A1CFB689A63FB68DB8F9BB258
:10500000013B9AB2FB68DA8701237B62FDF7C6FC9D
:1050100002463B6AD31A3A6B9A4203D83B6BB3F110
:10502000FF3F02D13B6B002B09D1FB68012283F8C3
:105030005120FB68002283F85020032338E0FB68EE
:10504000DB8E9BB2002B9CD1FB68DB8F9BB2002BCD
:1050500097D13A6A396BF86800F008F90346002BDB
:1050600008D0FB6820225A65FB68002283F8502094
:1050700001231DE0FB689B68002B0AD100233B61E4
:10508000FB681B68DB683B61FB681B689B683B61D6
:105090003B69FB68012283F85120FB68002283F8FA
:1050A0005020FB685B6D002B01D0012300E0002342
:1050B00018462837BD4680BD80B588B000AFF8607F
:1050C000B9603B601346FB71FDF768FC0246BB6AA2
:1050D0009B1A3A681344FB61FDF760FCB861394BD9
:1050E0001B685B011B0DFA6902FB03F37B6154E053
:1050F0003B68B3F1FF3F50D0FDF750FC0246BB695F
:10510000D31AFA699A4202D9FB69002B3DD1FB6898
:105110001B685A68FB681B6822F0E0025A60FB6853
:105120005B68B3F5827F11D1FB689B68B3F5004FD4
:1051300004D0FB689B68B3F5806F07D1FB681B68E0
:105140001A68FB681B6822F040021A60FB689B6AC1
:10515000B3F5005F0FD1FB681B681A68FB681B681A
:1051600022F400521A60FB681B681A68FB681B680F
:1051700042F400521A60FB68012283F85120FB6858
:10518000002283F85020032317E07B69002B01D114
:105190000023FB617B69013B7B61FB681B689A68AC
:1051A000BB681340BA689A420CBF01230023DBB2EC
:1051B0001A46FB799A429BD1002318462037BD46F8
:1051C00080BD00BF0000002080B586B002AFF8604F
:1051D000B9607A60FB685B68B3F5827F11D1FB68C8
:1051E0009B68B3F5004F04D0FB689B68B3F5806FF4
:1051F00007D1FB681B681A68FB681B6822F0400235
:105200001A60FB685B68B3F5827F17D1FB689B6807
:10521000B3F5806F12D17B680093BB680022012137
:10522000F868FFF749FF0346002B1AD0FB685B6D57
:1052300043F02002FB685A65032313E07B68009368
:10524000BB6800228021F868FFF736FF0346002B79
:1052500007D0FB685B6D43F02002FB685A650323AF
:1052600000E0002318461037BD4680BD80B586B0EB
:1052700002AFF860B9607A607B680093BB68012276
:105280000221F868FFF718FF0346002B07D0FB68E0
:105290005B6D43F02002FB685A65032313E07B68D3
:1052A0000093BB6800228021F868FFF705FF0346E2
:1052B000002B07D0FB685B6D43F02002FB685A654A
:1052C000032300E0002318461037BD4680BD80B59B
:1052D00082B000AF78607B68002B01D1012341E0F0
:1052E0007B6893F83D30DBB2002B06D17B6800224F
:1052F00083F83C207868FDF70BFA7B68022283F87C
:105300003D207B681A687B6804331946104600F01C
:10531000B1FA7B68012283F846207B68012283F87A
:105320003E207B68012283F83F207B68012283F8BE
:1053300040207B68012283F841207B68012283F8AA
:1053400042207B68012283F843207B68012283F896
:1053500044207B68012283F845207B68012283F882
:105360003D20002318460837BD4680BD80B582B079
:1053700000AF78607B68002B01D1012341E07B689E
:1053800093F83D30DBB2002B06D17B68002283F816
:105390003C20786800F039F87B68022283F83D20D1
:1053A0007B681A687B6804331946104600F062FA7D
:1053B0007B68012283F846207B68012283F83E2027
:1053C0007B68012283F83F207B68012283F840201C
:1053D0007B68012283F841207B68012283F8422008
:1053E0007B68012283F843207B68012283F84420F4
:1053F0007B68012283F845207B68012283F83D20E9
:10540000002318460837BD4680BD80B483B000AF86
:10541000786000BF0C37BD4680BC704780B584B053
:1054200000AF786039603B68002B09D17B6893F846
:105430003E30DBB2012B14BF01230023DBB222E09C
:105440003B68042B09D17B6893F83F30DBB2012B1A
:1054500014BF01230023DBB215E03B68082B09D100
:105460007B6893F84030DBB2012B14BF012300238B
:10547000DBB208E07B6893F84130DBB2012B14BF4C
:1054800001230023DBB2002B01D001235EE03B6847
:10549000002B04D17B68022283F83E2013E03B6896
:1054A000042B04D17B68022283F83F200BE03B6889
:1054B000082B04D17B68022283F8402003E07B683C
:1054C000022283F841207B681B6801223968184654
:1054D00000F05CFC7B681B681E4A934207D17B6826
:1054E0001B685A6C7B681B6842F400425A647B68F4
:1054F0001B68184A93420ED07B681B68B3F1804F3B
:1055000009D07B681B68144A934204D07B681B68EF
:10551000124A934211D17B681B689B6803F0070312
:10552000FB60FB68062B10D07B681B681A687B68E1
:105530001B6842F001021A6007E07B681B681A686A
:105540007B681B6842F001021A600023184610377E
:10555000BD4680BD002C0140000400400008004012
:1055600080B586B000AFF860B9607A600023FB7543
:10557000FB6893F83C30012B01D10223AEE0FB68BD
:10558000012283F83C207B680C2B00F29F8001A253
:1055900052F823F0C9550008CD560008CD56000832
:1055A000CD56000809560008CD560008CD56000813
:1055B000CD5600084B560008CD560008CD560008C1
:1055C000CD5600088B560008FB681B68B968184662
:1055D00000F0BEF9FB681B689A69FB681B6842F023
:1055E00008029A61FB681B689A69FB681B6822F0D5
:1055F00004029A61FB681B689969BB681A69FB68B9
:105600001B680A439A6164E0FB681B68B968184626
:1056100000F004FAFB681B689A69FB681B6842F497
:1056200000629A61FB681B689A69FB681B6822F438
:1056300080629A61FB681B689969BB681B691A02E2
:10564000FB681B680A439A6143E0FB681B68B96802
:10565000184600F04DFAFB681B68DA69FB681B68A6
:1056600042F00802DA61FB681B68DA69FB681B68B4
:1056700022F00402DA61FB681B68D969BB681A6909
:10568000FB681B680A43DA6123E0FB681B68B968A2
:10569000184600F097FAFB681B68DA69FB681B681C
:1056A00042F40062DA61FB681B68DA69FB681B6818
:1056B00022F48062DA61FB681B68D969BB681B69E8
:1056C0001A02FB681B680A43DA6102E00123FB75DA
:1056D00000BFFB68002283F83C20FB7D184618378A
:1056E000BD4680BD80B584B000AF786039600023CE
:1056F000FB737B6893F83C30012B01D10223B4E0AB
:105700007B68012283F83C207B68022283F83D20DD
:105710007B681B689B68BB60BB6823F07703BB603A
:10572000BB6823F47F43BB607B681B68BA689A60E0
:105730003B681B68B3F5005F3ED0B3F5005F00F235
:105740008780B3F5805F00F08680B3F5805F7FD8F7
:10575000702B1AD0702B7BD8602B50D0602B77D851
:10576000502B3CD0502B73D8402B58D0402B6FD8A7
:10577000302B64D0302B6BD8202B60D0202B67D8F7
:10578000002B5CD0102B5AD062E07B6818683B6815
:1057900099683B685A683B68DB6800F0D8FA7B6818
:1057A0001B689B68BB60BB6843F07703BB607B688A
:1057B0001B68BA689A604FE07B6818683B68996814
:1057C0003B685A683B68DB6800F0C1FA7B681B687D
:1057D0009A687B681B6842F480429A603CE07B6870
:1057E00018683B6859683B68DB681A4600F038FA6D
:1057F0007B681B685021184600F08FFA2CE07B680C
:1058000018683B6859683B68DB681A4600F056FA2E
:105810007B681B686021184600F07FFA1CE07B68FB
:1058200018683B6859683B68DB681A4600F018FA4C
:105830007B681B684021184600F06FFA0CE07B681B
:105840001A683B681B681946104600F066FA03E0C8
:105850000123FB7300E000BF7B68012283F83D2039
:105860007B68002283F83C20FB7B18461037BD463E
:1058700080BD000080B485B000AF786039607B687F
:105880001B68FB607B682F4A93420BD07B68B3F1A7
:10589000804F07D07B682C4A934203D07B682B4A09
:1058A000934208D1FB6823F07003FB603B685B68A0
:1058B000FA681343FB607B68224A93420BD07B68F3
:1058C000B3F1804F07D07B681F4A934203D07B68B7
:1058D0001E4A934208D1FB6823F44073FB603B6887
:1058E000DB68FA681343FB60FB6823F080023B68C7
:1058F0005B691343FB607B68FA681A603B689A68CF
:105900007B68DA623B681A687B689A627B680D4A3A
:10591000934203D13B681A697B681A637B68012252
:105920005A617B681B6903F00103002B05D07B687B
:105930001B6923F001027B681A6100BF1437BD4662
:1059400080BC7047002C014000040040000800406B
:1059500080B487B000AF786039607B681B6A7B6178
:105960007B681B6A23F001027B681A627B685B68B4
:105970003B617B689B69FB60FB6823F07003FB6005
:10598000FB6823F00303FB603B681B68FA68134362
:10599000FB607B6923F002037B613B689B687A694B
:1059A00013437B617B681C4A93420CD17B6923F0D3
:1059B00008037B613B68DB687A6913437B617B6921
:1059C00023F004037B617B68134A934211D13B6946
:1059D00023F480733B613B6923F400733B613B68B4
:1059E0005B693A6913433B613B689B693A691343BE
:1059F0003B617B683A695A607B68FA689A613B68E8
:105A00005A687B685A637B687A691A6200BF1C37E0
:105A1000BD4680BC704700BF002C014080B487B0F9
:105A200000AF786039607B681B6A7B617B681B6AAA
:105A300023F010027B681A627B685B683B617B68BD
:105A40009B69FB60FB6823F4E043FB60FB6823F485
:105A50004073FB603B681B681B02FA681343FB60E2
:105A60007B6923F020037B613B689B681B017A699B
:105A700013437B617B681D4A93420DD17B6923F000
:105A800080037B613B68DB681B017A6913437B61A0
:105A90007B6923F040037B617B68144A934213D1F6
:105AA0003B6923F480633B613B6923F400633B6102
:105AB0003B685B699B003A6913433B613B689B69A8
:105AC0009B003A6913433B617B683A695A607B6883
:105AD000FA689A613B685A687B689A637B687A695E
